:020000040800F2
:100000002805002001010008B70F0008090F0008AB
:10001000B50F00086D01000879120008000000000B
:10002000000000000000000000000000BB0F0008FE
:100030006F01000800000000B90F0008BD0F0008A4
:100040001B0100081B0100081B0100081B01000820
:100050001B0100081B0100081B0100081B01000810
:100060001B0100081B0100081B0100081B01000800
:100070001B0100081B0100081B0100081B010008F0
:100080001B0100081B0100081B0100081B010008E0
:100090001B0100081B0100081B0100081B010008D0
:1000A0001B0100081B0100081B0100081B010008C0
:1000B0001B0100081B0100081B0100081B010008B0
:1000C0001B0100081B0100081B0100081B010008A0
:1000D0001B0100086D1200081B0100081B0100082D
:1000E0001B0100081B0100081B010008DFF80CD0F1
:1000F00000F02AF8004800470D13000828050020EA
:100100000648804706480047FEE7FEE7FEE7FEE7B1
:10011000FEE7FEE7FEE7FEE7FEE7FEE71F1000084A
:10012000ED000008D2B201E000F8012B491EFBD21D
:1001300070470022F6E710B513460A4604461946F2
:10014000FFF7F0FF204610BD064C074D06E0E068C3
:1001500040F0010394E8070098471034AC42F6D30E
:10016000FFF7C8FFCC130008EC130008FEE7704748
:1001700072B6FEE710B590F821100022022905D0D2
:100180000421816380F82020012010BD01680B68E4
:1001900023F00E030B6001680B6823F001030B6072
:1001A00090F84030C46B012101FA03F3636080F8DA
:1001B000211080F82020104610BD000010B590F8E6
:1001C00021100024022903D00421816301243DE091
:1001D00001680A6822F00E020A6001680A6822F0CB
:1001E00001020A601A4A0168914201D1012121E00D
:1001F000174A1432914201D110211BE0144A2832CF
:10020000914201D1891515E0114A3C32914201D148
:1002100089140FE00E4A5032914202D14FF48031DE
:1002200008E00B4A6432914202D14FF4801101E0A0
:100230004FF08071064A083A5160012180F8211080
:10024000002180F82010416B01B18847204610BD85
:100250000800024070B5044600F00CF90546601C29
:1002600002D004480078044400F004F9401BA04286
:10027000FAD370BD040000202DE9F84FDFF8B891E3
:10028000002409F1040A0AF1040B23460F270BF19D
:10029000040EC9E00125A5402A40AA427DD1674E3F
:1002A000D1F804C0ACEB0608B44532D014DCBCF184
:1002B000030F3AD009DCBCF1000F2AD0BCF1010FCA
:1002C0001CD0BCF1020F31D11DE0BCF1110F17D0D1
:1002D000BCF1120F2AD119E0B8F5881F19D006DC3D
:1002E000B8F5803F15D0B8F5801F1FD111E0B8F5E3
:1002F000001F0ED0B8F5041F18D10AE0CB6815E036
:10030000CB681B1D12E0CB6808330FE0CB680C33C1
:100310000CE08B682BB1012B4FF0080303D0456133
:1003200004E0042302E0056100E00023FF2A01D875
:10033000064601E000F104064FEA840501D9A5F163
:100340002005D6F8008007FA05FC28EA0C0803FA15
:1003500005F548EA0508C6F800804D68ED0062D54D
:10036000374DAE6946F00106AE61AD6924F0030673
:1003700005F001050095334D06EB050CDCF808503F
:10038000A607360F07FA06F825EA0805DFF8B88051
:10039000404503D14FF0000817E044E0DFF8AC809F
:1003A000404502D14FF001080FE0DFF8A48040453E
:1003B00002D14FF0020808E0DFF89880404502D1F2
:1003C0004FF0030801E04FF0040808FA06F848EA85
:1003D0000508CCF808804D68D9F80060ED034D465B
:1003E00001D5164300E096432E604D68DAF80060B0
:1003F000AD03554601D5164300E096432E604D6887
:10040000DBF80060ED025D4601D5164300E096433F
:100410002E604D68DEF80060AD02754601D51643CA
:1004200000E096432E60641C0D682A46E5407FF488
:1004300031AFBDE8F88F000000040140000011104A
:10044000001002400000014000080140000C014083
:100450000010014000140140C26821EA02030A4072
:1004600043EA0241016170470AB101617047090422
:10047000FBE700000148806870470000040000208E
:1004800002488168027811448160704704000020AE
:10049000074810B5016841F010010160032000F029
:1004A00075F80F2000F006F800F024F8002010BDC9
:1004B0000020024070B50D4D04464FF47A71287843
:1004C000B1FBF0F00A490968B1FBF0F000F0ECFA7A
:1004D00048B9102C07D200222146501E00F036F8F1
:1004E00000206C6070BD012070BD00000400002081
:1004F000100000200C4808B5816941F001018161BC
:10050000816901F001010091C16941F08051C1612F
:10051000C06900F0805000900448416821F0E0611B
:1005200041F00071416008BD001002400000014030
:10053000002809DB00F01F020121914040098000E2
:1005400000F1E020C0F8001170470000F0B40E4B3D
:100550001B680C46C3F30223C3F10705042D00D921
:100560000425191D072901D2002300E0DB1E012606
:1005700006FA05F1491E214099409E40761E16401C
:100580003143F0BC00F082BE0CED00E0064900F003
:10059000070208684FF6FF03184040EA0220034AAA
:1005A00010430860704700000CED00E00000FA0501
:1005B0002DE9F0470F46050061D0434E306800F04A
:1005C0000700B84209D2306820F007003843306095
:1005D000306800F00700B84251D128683B4C8107D1
:1005E00012D5400703D5606840F4E0606060287869
:1005F000000703D5606840F4605060606068A968D7
:1006000020F0F000084360602878C00728D06868B0
:10061000012810D02168022810D0890700292EDA7D
:10062000616821F0030101436160FFF723FF804609
:1006300041F288390DE021688903EFE78901EDE790
:10064000FFF718FFA0EB0801494502D90320BDE8D8
:10065000F0876068696800F00C00B0EB810FEFD1A3
:10066000306800F00700B8420BD9306820F007006E
:1006700038433060306800F00700B84201D00120F4
:10068000E5E72878400705D56068E96820F4E06070
:10069000084360602878000706D56068296920F45F
:1006A000605040EAC100606000F038F86168084AB4
:1006B000C1F30311515CC840064908600648006850
:1006C000FFF7F8FE0020C2E70020024000100240C1
:1006D000B413000810000020080000200448054959
:1006E00000684968044AC1F30221515CC840704760
:1006F0001000002000100240C413000804480549FF
:1007000000684968044AC1F3C221515CC84070477F
:100710001000002000100240C413000812A185B090
:100720000FC98DE80F0014A0144A006804905168A6
:10073000134801F00C03042B10D0082B0ED1C1F389
:100740008343C9031DF803000AD5516804AAC1F305
:100750004041515C0A4A5043B0FBF1F005B070478C
:1007600008494843FAE700000203040506070809A0
:100770000A0B0C0D0E0F10100102000000100240B9
:1007800000127A0000093D002DE9F84F040070D0F6
:100790002078C04DC00749D06868C0F381000128A7
:1007A00007D06868C0F38100022809D16868C003D7
:1007B00006D52868800339D560680028E7D035E081
:1007C0006068B0F5803F0BD010B1B0F5A02F11D00C
:1007D000286820F480302860286820F4802002E017
:1007E000286840F480302860606890B1FFF742FECE
:1007F00006460AE0286840F480202860F0E700BF41
:10080000FFF738FE801B642873D828688003F7D56B
:100810000CE0FFF72FFE064605E000BFFFF72AFEBB
:10082000801B6428F0D828688003F7D420789A4E7B
:1008300080074FF001094FF0000839D5686810F0C3
:100840000C0F07D06868C0F38100022809D16868DE
:10085000C00306D42868800714D52069012808D170
:1008600010E02069B0B1C6F80090FFF703FE07461C
:1008700005E00AE1FFF7FEFDC01B0228C4D8286886
:100880008007F7D52868616920F0F80040EAC100C8
:1008900028600DE0C6F80080FFF7ECFD074604E095
:1008A000FFF7E8FDC01B022823D828688007F7D48B
:1008B000207800072CD57948A169D9B1C0F80090FB
:1008C000FFF7D8FD074604E0FFF7D4FDC01B022860
:1008D0000FD8686A8007F7D571484FF4FA5100685D
:1008E000B0FBF1F0009000BF0098411E0091FAD2D9
:1008F0000EE080E0C0F80080FFF7BCFD074604E092
:10090000FFF7B8FDC01B022875D8686A8007F7D4C6
:100910002078400760D5E8690027C00008D4E8695E
:1009200040F08050E861E869012700F080500090B5
:100930005C480168C90513D40168834641F480719D
:100940000160FFF797FD824606E000BFFFF792FDCA
:10095000A0EB0A0064284ED8DBF80000C005F5D5EE
:10096000E06801280AD008B1052813D0286A20F0D1
:1009700001002862286A20F0040002E0286A40F0A2
:1009800001002862E06841F2883B98B1FFF772FDF0
:1009900082460BE0286A40F004002862EEE700BFC0
:1009A000FFF768FDA0EB0A0159455AD8286A80076D
:1009B000F6D50CE0FFF75EFD824605E0FFF75AFD35
:1009C000A0EB0A0159454CD8286A8007F6D41FB11C
:1009D000E86920F08050E861E06988B36968C1F394
:1009E0008101022944D00228C6F8608004D0FFF7B4
:1009F00041FD044638E034E0FFF73CFD074604E0E3
:100A0000FFF738FDC01B02282BD828688001F7D4D7
:100A1000206AB0F5803F05D16868A16820F40030F5
:100A200008436860D4E908010843696821F4741137
:100A300008436860C6F86090FFF71CFD044606E0B6
:100A400025E000BFFFF716FD001B022809D8286823
:100A50008001F7D51BE000BFFFF70CFD001B02284B
:100A600002D90320BDE8F88F28688001F4D40EE095
:100A70000128F7D06868226A00F48031914204D1DD
:100A8000616A00F47010884201D00120EAE700207A
:100A9000E8E70000001002400000424280044242A9
:100AA000100000200070004010B5401EB0F1807FA3
:100AB00001D3012010BD4FF0E02460610F216017C9
:100AC00000F0E4FB0020A06107202061002010BDA1
:100AD00070477047F8B5026804461068D1685369DA
:100AE00010F00F0F4FF0000554D003F0010601F491
:100AF000907737435FD0C20705D0CA0503D5226C73
:100B000042F001022264420705D5DA0703D0226CC5
:100B100042F002022264820705D5DA0703D0226C74
:100B200042F004022264020707D501F0200232439A
:100B300003D0226C42F008022264226C002A35D0D5
:100B4000800604D5880602D5204600F089FA206880
:100B50004069216CC0F3801001F008010143204678
:100B600025D000F065FA2068416949061BD5416926
:100B700021F040014161A06BA8B158494163A06BCD
:100B8000FFF71CFB002811D0A06B416B01B0BDE842
:100B9000F040084783060ED58B060CD52046BDE8ED
:100BA000F84000F05DBA2046FFF793FFF8BDFFF76D
:100BB00090FF2564F8BD266B2023012E52D1C60676
:100BC00050D5CE064ED5106850680090506940064A
:100BD0002AD5A16B086840680004000CEAD0A68DF5
:100BE0008642E7D9E0858869202818D0D06820F4AB
:100BF0008070D0602068416921F001014161206866
:100C0000416921F04001416184F83E30256320684C
:100C1000C16821F01001C160A06BFFF7ABFAA08D95
:100C2000E18D401A81B219E0A08DE18D401A81B2A8
:100C3000E08D0028BED00029BCD0D06820F4907090
:100C4000D0602068426922F00102426184F83E309F
:100C500025632068C26822F01002C2602046FFF7B8
:100C600037FFF8BD05062BD50D0629D594F83D00B4
:100C70002128F6D1A068B0F5805F01D12069B0B11C
:100C8000206A411C2162216800784860E08C401E87
:100C90000004000CE084E4D12068C16821F08001E8
:100CA000C1602068C16841F04001C160F8BD206AA0
:100CB0000088C0F308005060206A801C2062E5E7CD
:100CC0004006F3D54806F1D5D168204621F0400111
:100CD000D16084F83D3000F016F9F8BD211000080D
:100CE00070B5040004D094F83D00002510B106E072
:100CF000012070BD84F83C50204600F023F82420E9
:100D000084F83D002068C16821F40051C16020468C
:100D100000F002FA2068016921F490410161206825
:100D2000416921F02A0141612068C16841F4005104
:100D3000C1602564202084F83D0084F83E00002036
:100D400070BD000030B585B0002400940194029479
:100D500003940068184988422CD11848816941F4ED
:100D600080418161816901F480410491816941F090
:100D7000040181618069124D00F0040004904FF479
:100D800000700090022001900320039069462846DD
:100D9000FFF772FA2815CDE9000469462846029447
:100DA000FFF76AFA002211462520FFF7CFFB252026
:100DB000FFF7BEFB05B030BD003801400010024017
:100DC0000008014090F83E30202B0ED159B152B1AD
:100DD00090F83C30012B08D0012380F83C300023F0
:100DE000036300F0F5B9012070470220704700004E
:100DF000154930B4884224D1144841880A0416D4D5
:100E000002464C0412784FF0000304D50A2A0DD193
:100E100041F4004113E00D2A0FD0C1F30D040C4D35
:100E2000491C89B22A554180C72900D9438030BC6A
:100E3000012206490448FFF7C5BF41F480414180C3
:100E4000F5E730BC70470000E00000200000002003
:100E5000180000202DE9F843044690F83D001F4695
:100E600016460D4620284CD1C5B1BEB194F83C00C1
:100E7000012846D0012084F83C004FF00008C4F857
:100E80004080212084F83D00FFF7F4FAA6848146D3
:100E9000E684A068B0F5805F03D004E00120BDE8DF
:100EA000F883206928B12E465FF0000584F83C8065
:100EB0000EE00026FAE78021204600F0A4F9A0B950
:100EC000AEB116F8010B21684860E08C401EE0844A
:100ED000E08C4B464FF0000200970028EBD14FF01A
:100EE0004001204600F08FF930B10320D7E735F8F4
:100EF000020BC0F30800E6E7202084F83D00002044
:100F0000CDE70220CBE77047FEE7000070B586B062
:100F1000002418480094019402940394816941F0DC
:100F200010018161816901F010010491816941F032
:100F300020018161816901F020010491816941F002
:100F40000401816180690C4E00F004004FF40055EB
:100F50000490002229463046FFF786FA01200095CA
:100F6000CDE901040220039069463046FFF784F979
:100F700006B070BD00100240001001400C4810B5D2
:100F80000A4901604FF4E1314160002181600C2287
:100F9000C160C0E904128161C161FFF7A1FE0028B0
:100FA00003D0BDE81040FFF7E3B810BD00380140A2
:100FB000E0000020FEE7FEE770477047FFF760BAE9
:100FC00030B58FB028216846FFF7B3F814210AA87E
:100FD000FFF7AFF801210804CDE9001000240294C6
:100FE00002250491CDE907504FF4E01009906846BE
:100FF000FFF7CAFB08B172B6FEE70F20CDE90A057C
:101000004FF48060CDE90C4002210AA80E94FFF74E
:10101000CFFA002801D072B6FEE70FB030BD70479E
:1010200010B5406A0021C185C184FFF752FD10BD93
:101030000168CA6822F49072CA6001684A6922F0A5
:1010400001024A61016B012904D10168CA6822F0DA
:101050001002CA60202180F83E1000210163704711
:1010600008B590F83E10222901D0022008BD826800
:101070004FF480539A4201D1016921B1816A9A42A9
:101080001BD04AB10AE00268816A5268C2F30802C2
:101090000A80816A891C08E0026972B1026852689C
:1010A00002F07F020A70816A491C8162C18D491E6B
:1010B0000904090CC18503D019E002685268F1E700
:1010C0000168CA6822F02002CA600168CA6822F476
:1010D0008072CA6001684A6922F001024A612021D7
:1010E00080F83E10016B012903D0FFF781FE00203C
:1010F00008BD002101630168CA6822F01002CA60BD
:1011000001680A68D20602D50A6849680091818D93
:10111000FFF7DEFCEBE7000070B5044600680169EC
:10112000E26821F44051114301612169A06808433C
:10113000616908432168CA6841F20C639A4302431B
:10114000CA6020684169A26921F44071114341617C
:101150001E492068884202D1FFF7D0FA01E0FFF76C
:10116000BDFA00EBC00101EB001260686421800051
:10117000B2FBF0F3B3FBF1F36FF018067343B2FB6D
:10118000F0F5B2FBF0F605EB8305322303EB051512
:10119000B5FBF1F5B6FBF1F605F0F00505EB06152C
:1011A000B2FBF0F6B2FBF0F0B0FBF1F06FF018021A
:1011B000504306EB800003EB0010B0FBF1F0216818
:1011C00000F00F002844886070BD00000038014026
:1011D00081628285C28500210164222280F83E203E
:1011E00080F83C100168CA6842F48072CA600168E5
:1011F0004A6942F001024A610068C16841F0200179
:10120000C160002070472DE9F041984617460E4610
:101210000446069D1DE0681C1BD02DB1FFF72AF97E
:10122000A0EB0800A84214D92068C16821F4D0714D
:10123000C1602068416921F001014161202084F8EA
:101240003D0084F83E00002084F83C000320BDE807
:10125000F0812068006836EA000004D00020B8421F
:10126000D9D00020F3E70120F9E700000148FFF79B
:1012700031BC0000E0000020FEE70000014A024906
:1012800000F023B8ED120008140000200907090E31
:10129000002804DB00F1E02080F80014704700F023
:1012A0000F0000F1E02080F8141D704702E008C82C
:1012B000121F08C1002AFAD170477047002001E0D0
:1012C00001C1121F002AFBD170472DE9F0411646DB
:1012D0000F460446002503E03946B047641C6D1CE8
:1012E00020780028F8D12846BDE8F08138B50446BA
:1012F0008DF800004FF6FF73012269460248FFF7A0
:10130000A9FD204638BD0000E0000020FFF7C0F82E
:10131000FFF756FEFFF7FAFDFFF730FE01221B49EB
:101320001B48FFF74FFD1B4F4FF40056002231467C
:101330003846FFF799F8164D144C4FF6FF7A4FF0E8
:1013400000084FF4FA796088000414D512A0FFF762
:1013500095FF60885346C0F30D0212490C48FFF711
:1013600079FD00BF95F83D002028FBD10EA0FFF7C6
:1013700085FFA4F8028031463846FFF76DF80BA0D0
:10138000FFF77CFF4846FEF765FFDCE70000002022
:10139000E000002000100140476574206461746122
:1013A0003A000000180000200D0A000074657374F4
:1013B0000D0A00000000000000000000010203040C
:1013C000060708090000000001020304EC130008EE
:1013D0000000002018000000AC12000804140008EF
:1013E0001800002010050000BC12000800000000DA
:1013F0000100000010000000000000000024F400C4
:0414000000000000E8
:04000005080000ED02
:00000001FF
